:100000000C945F000C9487000C9487000C9487007C
:100010000C9487000C9487000C9487000C94870044
:100020000C9487000C9487000C9487000C94870034
:100030000C9487000C9487000C9487000C94870024
:100040000C948D050C9487000C9487000C94870009
:100050000C9487000C9487000C9487000C94870004
:100060000C94C2020C9487000000000700020100FB
:100070000003040600000000000000000102040864
:100080001020408001020408102001020408102002
:10009000040404040404040402020202020203032E
:1000A0000303030300000000250028002B000000CC
:1000B0000000240027002A001A01690221011124EE
:1000C0001FBECFEFD8E0DEBFCDBF11E0A0E0B1E0B2
:1000D000EAEDFFE002C005900D92A032B107D9F71A
:1000E00012E0A0E2B1E001C01D92A131B107E1F739
:1000F00010E0CCEBD0E004C02297FE010E94B907CB
:10010000C83BD107C9F70E94AA070C94E0070C94DA
:100110000000E0914101F0914201A0913A01B091BB
:100120003B01AA0FBB1FA05EBE4F0190F081E02DE6
:100130006C9181E491E0099462E170E081E491E0E6
:100140000E945D0265E271E081E491E00E945F023D
:1001500069E870E081E491E00E9464028CE391E040
:100160000E94D60461E082E00C941E058EE00E949D
:100170006606909325018093240164EF71E080E08E
:1001800090E00C94FA050F9380913A0190913B0115
:10019000009761F1019709F04BC000913001209167
:1001A0002E0140912C0160E08CE391E00E946904F3
:1001B00080913A0190913B01DC01AA0FBB1FA05E28
:1001C000BE4F26E0289FF001299FF00D1124EA5D23
:1001D000FE4F8281938120813181822B932B248158
:1001E0003581822B932B8D939C9322C061E080916B
:1001F000260190912701019709F060E082E00E94BA
:10020000570580913A0190913B01FC01EE0FFF1FD1
:10021000E05EFE4F26E0289FD001299FB00D1124FB
:10022000AA5DBE4F12968D919C9113979183808306
:100230000F91089521E048E067E08CE391E00C9491
:10024000EF038CE391E00C940204CF93DF93CFEFA4
:10025000DFEF81E491E00E947A01892B09F447C025
:1002600081E491E00E9482019093390180933801EA
:10027000209106013091070137FF09C090933B019F
:1002800080933A01109207011092060117C0409125
:100290003A0150913B01FA01EE0FFF1FE40FF51FE9
:1002A000E20FF31FEE0FFF1FEA5DFE4F9183808385
:1002B0002F5F3F4F3093070120930601E0913A01F1
:1002C000F0913B01EE0FFF1FE050FF4F2091060120
:1002D0003091070180819181281739070CF4B9CF3B
:1002E0000E94C300D0930701C0930601B2CFDF91F3
:1002F000CF9108958091740190E020917501821B47
:10030000910908952091750180917401281750F486
:10031000E22FF0E0EA58FE4F808190E02F5F2093BB
:10032000750108958FEF9FEF0895E0917501809119
:100330007401E81730F4F0E0EA58FE4F808190E055
:1003400008958FEF9FEF08950895E0914D01F0918A
:100350004E013097E1F03091750120917401321710
:10036000B0F040E0242F30E02617370754F4DC01CA
:10037000A20FB31F5C91D901AA58BE4F5C934F5F87
:10038000F1CF1092750160937401CB010994089527
:10039000E0914F01F0915001309729F010925301F4
:1003A0001092520109940895CF92DF92EF92FF923A
:1003B0000F931F93CF93DF937C01CB018A01209190
:1003C0005101222389F0EB016B01C40ED51ECC151F
:1003D000DD0569F06991D701ED91FC910190F08103
:1003E000E02DC7010995F3CF642F0E948F02C80149
:1003F000DF91CF911F910F91FF90EF90DF90CF9001
:100400000895CF93DF931F92CDB7DEB76983209114
:1004100051012223D1F020915201203240F021E0FD
:1004200030E0FC013383228380E090E015C08091AE
:100430005301E82FF0E0EC5AFE4F998190838F5FD3
:10044000809353018093520105C061E0CE01019673
:100450000E948F0281E090E00F90DF91CF9108958C
:10046000FC011382128248EE53E060E070E04483A6
:1004700055836683778383E191E091838083089538
:100480001092750110927401109253011092520152
:100490000C946D02CF93DF93EC01862F0E948B02A8
:1004A00088EC91E00E94AD0285EA91E00E94A802EA
:1004B000CE01DF91CF910C9440020C944A027093CC
:1004C0004E0160934D0108957093500160934F0168
:1004D000089581E491E00C9430021092030281E0CF
:1004E000809301021092000261E082E10E945705B0
:1004F00061E083E10E945705E9EBF0E080818E7FA7
:10050000808380818D7F808388E48093B80085E438
:100510008093BC000895880F8093BA0008956132DB
:1005200098F420910302243089F46093B801FC010F
:100530008AEB91E0DC012A2F281B261718F4219161
:100540002D93F9CF80E0089581E0089582E0089529
:100550009093FD018093FC0108959093FF01809397
:10056000FE01089585ED8093BC008091BC0084FD60
:10057000FCCF10920302089585EC8093BC0010928A
:10058000030208951F920F920FB60F9211242F931A
:100590003F934F935F936F937F938F939F93AF930B
:1005A000BF93EF93FF938091B900887F803609F461
:1005B0009CC068F5883209F45BC090F4803109F47E
:1005C00054C038F4882309F4F5C0883009F44DC0CC
:1005D000F5C0883109F44CC0803209F45DC0EEC02A
:1005E000803409F468C048F4803309F455C0883376
:1005F00009F0E4C080939601A8C0803509F44FC08B
:10060000883509F45DC0883409F0D8C0D5C0883970
:1006100009F4C6C0A8F4883709F467C038F48836EE
:1006200009F463C0803709F460C0C8C0883809F491
:10063000B7C0803909F45FC0803809F0BFC05BC023
:10064000803B09F485C038F4803A09F466C0883AE2
:1006500009F47EC0B3C0803C09F4A6C0883C09F40C
:10066000A3C0883B09F489C0A9C08091020210C0D0
:100670009091DB018091DA01981770F5E091DB0130
:1006800081E08E0F8093DB01F0E0E452FE4F808129
:100690008093BB0085EC85C0809396018DC0E0916E
:1006A000DB0181E08E0F8093DB018091BB00F0E0E5
:1006B000E452FE4F80839091DB018091DA016DC09E
:1006C000E091DB0181E08E0F8093DB018091BB0024
:1006D000F0E0E452FE4F80838091010281116CC0F2
:1006E00081E08093000284EA60C083E0809303028B
:1006F00010929701CFCF80919701803208F050C0BF
:10070000E091970181E08E0F809397018091BB006B
:10071000F0E0E856FE4F8083BDCF80919701803294
:1007200030F4E0919701F0E0E856FE4F10820E940D
:10073000B2026091970170E0E091FC01F091FD013F
:1007400088E991E00995109297010E94BC0236C099
:1007500084E0809303021092B9011092B801E091F5
:10076000FE01F091FF0109958091B801811105C04A
:1007700081E08093B8011092BA01E091B90181E063
:100780008E0F8093B901F0E0E654FE4F8081809394
:10079000BB009091B9018091B801981708F47ACF05
:1007A00085E88093BC000AC085EC8093BC00109261
:1007B000030204C0109296010E94B202FF91EF91D1
:1007C000BF91AF919F918F917F916F915F914F9169
:1007D0003F912F910F900FBE0F901F901895CF93C0
:1007E000DF93EC01688349832A8361E070E033E0A2
:1007F000239FC00111240E94BD079C838B83DF913E
:10080000CF910895FC01838194810C941B07CF93B1
:10081000DF93EC0160E088810E94570584E190E05D
:100820000E94200661E088810E94570584E190E0E3
:10083000DF91CF910C9420060F931F93CF93DF93FA
:10084000EC01062F18E007FF02C061E001C060E084
:1008500089810E945705CE010E940704000F1150A4
:1008600091F7DF91CF911F910F910895EF92FF9231
:100870001F93CF93DF9300D0CDB7DEB77C01162F47
:1008800027FF02C060EC01C060EE26FF606147FFF9
:10089000686046FF646017FF626016FF6160C70111
:1008A00029834A830E941C042981622FC7010E9468
:1008B0001C044A81642FC7010E941C04612FC701D8
:1008C0000F900F90DF91CF911F91FF90EF900C94BC
:1008D0001C047F928F929F92AF92BF92CF92DF9231
:1008E000EF92FF920F931F93CF93DF93EC01162F9C
:1008F000942E822E60E00E941C0460E0CE010E94D3
:100900001C0460E0CE010E941C0460E0CE010E9445
:100910001C0483E0189F7001112467018FEFC81A2F
:10092000D80A570182E0A80EB11C712C8A81781672
:1009300000F571120FC0EB81FC81EE0DFF1D90825E
:10094000EB81FC81EC0DFD1D8082EB81FC81EA0DC9
:10095000FB1D0083EB81FC8183E0789EE00DF11D9F
:100960001124228141816081CE010E94360473945A
:10097000DDCF60E0CE010E941C0460E0CE010E9449
:100980001C0460E0CE010E941C0460E0CE01DF91F7
:10099000CF911F910F91FF90EF90DF90CF90BF907C
:1009A000AF909F908F907F900C941C040F931F9397
:1009B000CF93DF93EC0161E088810E941E0561E026
:1009C00089810E941E0510E08A81181748F400E012
:1009D00020E040E0612FCE010E9469041F5FF4CF48
:1009E000DF91CF911F910F910895833081F028F40A
:1009F000813099F08230A1F008958630A9F08730D7
:100A0000B9F08430D1F4809180008F7D03C0809153
:100A100080008F7780938000089584B58F7702C01F
:100A200084B58F7D84BD08958091B0008F7703C019
:100A30008091B0008F7D8093B0000895CF93DF93B5
:100A400090E0FC01E458FF4F2491FC01E057FF4F78
:100A50008491882349F190E0880F991FFC01E255A9
:100A6000FF4FA591B4918C559F4FFC01C591D49136
:100A70009FB7611108C0F8948C91209582238C93C4
:100A8000888182230AC0623051F4F8948C91322F0D
:100A9000309583238C938881822B888304C0F894BB
:100AA0008C91822B8C939FBFDF91CF9108950F93F0
:100AB0001F93CF93DF931F92CDB7DEB7282F30E07F
:100AC000F901E859FF4F8491F901E458FF4F14915F
:100AD000F901E057FF4F04910023C9F0882321F06A
:100AE00069830E94F5046981E02FF0E0EE0FFF1F9B
:100AF000EC55FF4FA591B4919FB7F8948C9161117B
:100B000003C01095812301C0812B8C939FBF0F9050
:100B1000DF91CF911F910F9108951F920F920FB601
:100B20000F9211242F933F938F939F93AF93BF9373
:100B30008091050290910602A0910702B0910802EF
:100B40003091040223E0230F2D3720F40196A11DDC
:100B5000B11D05C026E8230F0296A11DB11D2093EB
:100B600004028093050290930602A0930702B093BB
:100B700008028091090290910A02A0910B02B091A3
:100B80000C020196A11DB11D8093090290930A02E7
:100B9000A0930B02B0930C02BF91AF919F918F91E4
:100BA0003F912F910F900FBE0F901F9018953FB758
:100BB000F8948091090290910A02A0910B02B091E1
:100BC0000C0226B5A89B05C02F3F19F00196A11D68
:100BD000B11D3FBF6627782F892F9A2F620F711D95
:100BE000811D911D42E0660F771F881F991F4A954E
:100BF000D1F70895CF92DF92EF92FF92CF93DF93D8
:100C00006B017C010E94D705EB01C114D104E10402
:100C1000F10479F00E94D7056C1B7D0B683E734090
:100C2000A0F381E0C81AD108E108F108C851DC4FEF
:100C3000ECCFDF91CF91FF90EF90DF90CF900895B0
:100C40000197009739F0880F991F880F991F029715
:100C50000197F1F70895789484B5826084BD84B5D6
:100C6000816084BD85B5826085BD85B5816085BDA7
:100C7000EEE6F0E0808181608083E1E8F0E01082C0
:100C8000808182608083808181608083E0E8F0E001
:100C9000808181608083E1EBF0E0808184608083EB
:100CA000E0EBF0E0808181608083EAE7F0E0808122
:100CB0008460808380818260808380818160808382
:100CC0008081806880831092C10008958E3008F082
:100CD0008E5087702091080190E4299F9001112483
:100CE000822B80937C0080917A00806480937A00CC
:100CF00080917A0086FDFCCF809178002091790068
:100D000090E0922B0895CF93DF938230910510F4F9
:100D100082E090E0E0910F02F091100220E030E0DC
:100D2000A0E0B0E0309739F1408151814817590770
:100D3000B8F04817590771F482819381109729F010
:100D400013969C938E9312972CC0909310028093CD
:100D50000F0227C02115310531F04217530718F053
:100D6000A901DB0101C0EF019A01BD01DF01028091
:100D7000F381E02DD7CF21153105F9F0281B390B70
:100D80002430310580F48A819B816115710521F041
:100D9000FB019383828304C09093100280930F021F
:100DA000FE01329644C0FE01E20FF31F819391933E
:100DB00022503109398328833AC020910D023091A5
:100DC0000E02232B41F420910B0130910C01309342
:100DD0000E0220930D022091090130910A01211584
:100DE000310541F42DB73EB740910D0150910E01F0
:100DF000241B350BE0910D02F0910E02E217F30770
:100E0000A0F42E1B3F0B2817390778F0AC014E5F7A
:100E10005F4F2417350748F04E0F5F1F50930E02A7
:100E200040930D028193919302C0E0E0F0E0CF0186
:100E3000DF91CF910895CF93DF93009709F487C096
:100E4000FC01329713821282C0910F02D0911002DE
:100E5000209781F420813181280F391F80910D0264
:100E600090910E028217930779F5F0930E02E093AA
:100E70000D026DC0DE0120E030E0AE17BF0750F478
:100E800012964D915C9113979D014115510509F101
:100E9000DA01F3CFB383A28340815181840F951F80
:100EA0008A179B0771F48D919C911197840F951F60
:100EB00002969183808312968D919C9113979383D0
:100EC00082832115310529F4F0931002E0930F027B
:100ED0003EC0D9011396FC93EE9312974D915D910C
:100EE000A40FB51FEA17FB0779F480819181840F65
:100EF000951F0296D90111969C938E9382819381BE
:100F000013969C938E931297E0E0F0E08A819B8188
:100F1000009719F0FE01EC01F9CFCE01029628816D
:100F20003981820F931F20910D0230910E022817F4
:100F3000390769F4309729F41092100210920F02C9
:100F400002C013821282D0930E02C0930D02DF9171
:100F5000CF9108950E942B060E949C00C0E0D0E033
:100F60000E94B6002097E1F30E940000F9CFEE0F37
:100F7000FF1F0590F491E02D09940F931F93CF93D9
:100F8000DF93869F8001879F100D969F100D11247F
:100F9000C8010E948306EC01009729F0A80160E0D7
:100FA00070E00E94D907CE01DF91CF911F910F9180
:100FB0000895DC0101C06D9341505040E0F7089561
:100FC00010E0CCEBD0E004C0FE010E94B9072296ED
:0A0FD000CE3BD107C9F7F894FFCF1C
:100FDA00010003000000FFFF010000110280000071
:100FEA000000000102D4017A0182019501A40100E6
:00000001FF
